:020000040800F2
:100000000000022071760008F90C0008FB0C0008C3
:10001000FD0C0008FF0C0008010D000800000000A6
:10002000000000000000000000000000030D0008B8
:10003000050D000800000000070D0008090D00086C
:10004000C1760008C1760008C1760008C1760008B4
:10005000C1760008C1760008C1760008C1760008A4
:10006000C1760008C1760008C1760008C176000894
:10007000C1760008C1760008C1760008C176000884
:10008000C1760008C1760008C1760008C176000874
:10009000C1760008C1760008C1760008C176000864
:1000A000C1760008C1760008C1760008C176000854
:1000B000C1760008C1760008C1760008C176000844
:1000C000C1760008C1760008C1760008C176000834
:1000D000C1760008C1760008C1760008C176000824
:1000E000C1760008C1760008C1760008C176000814
:1000F000C1760008C1760008C1760008C176000804
:10010000C1760008C1760008C1760008C1760008F3
:10011000C1760008C1760008C1760008C1760008E3
:10012000C1760008C1760008C1760008C1760008D3
:10013000C1760008C1760008C1760008C1760008C3
:10014000C1760008C1760008C1760008150D0008C8
:10015000C1760008C1760008C1760008C1760008A3
:10016000C1760008C1760008C1760008C176000893
:10017000C1760008C1760008C176000800000000C2
:08018000C1760008C1760008F9
:1001900010B5054C237833B9044B13B10448AFF3C1
:1001A00000800123237010BD90000020000000009B
:1001B000647F000808B5034B1BB103490348AFF344
:1001C000008008BD0000000094000020647F00084B
:1001D00053B94AB9002908BF00281CBF4FF0FF31AE
:1001E0004FF0FF3000F072B9ADF1080C6DE904CEAC
:1001F00000F006F8DDF804E0DDE9022304B0704702
:100200002DE9F047089E04468846002B4BD18A42D0
:10021000154667D9B2FA82F24AB1C2F1200701FA53
:1002200002F320FA07F7954047EA030894404FEAA3
:10023000154E230CB8FBFEF71FFA85FC0EFB178842
:1002400043EA084307FB0CF1994209D9EB1807F17F
:10025000FF3080F01B81994240F21881023F2B440D
:100260005B1AA4B2B3FBFEF00EFB103344EA034466
:1002700000FB0CFCA44509D92C1900F1FF3380F0D8
:100280000781A44540F2048102382C4440EA07402B
:10029000A4EB0C0400271EB1D4400023C6E90043A0
:1002A0003946BDE8F0878B4209D9002E00F0EB807B
:1002B0000027C6E9000138463946BDE8F087B3FAA1
:1002C00083F7002F47D18B4202D3824200F2FA809B
:1002D000841A61EB030301209846002EE0D0C6E9A2
:1002E0000048DDE702B9FFDEB2FA82F2002A40F0F0
:1002F0008F80491B4FEA154E1FFA85F80127B1FB85
:10030000FEFC230C0EFB1C1143EA014308FB0CF11D
:10031000994207D9EB180CF1FF3002D2994200F252
:10032000CD808446591AA3B2B1FBFEF00EFB101427
:1003300043EA044408FB00F8A04507D92C1900F152
:10034000FF3302D2A04500F2B6801846A4EB0804A1
:1003500040EA0C409FE7C7F1200CBB4022FA0CFE9C
:100360004EEA030E01FA07F420FA0CF521FA0CF319
:100370004FEA1E482543B3FBF8F92C0C08FB193350
:100380001FFA8EFA44EA034309FB0AF49C4202FA7C
:1003900007F200FA07F10BD91EEB030309F1FF3056
:1003A00080F087809C4240F28480A9F10209734466
:1003B0001B1BADB2B3FBF8F008FB103345EA034456
:1003C00000FB0AFAA24508D91EEB040400F1FF3332
:1003D0006BD2A24569D90238744440EA0940A0FBB7
:1003E0000289A4EB0A044C45C2464B4654D351D073
:1003F000002E69D0B1EB0A0564EB030404FA0CFC8F
:10040000FD40FC404CEA0505C6E90054002747E7DB
:10041000C2F1200320FA03F7954001FA02F021FA15
:1004200003F34FEA154E3843010CB3FBFEF71FFAF6
:1004300085F80EFB173341EA034107FB08F38B42B3
:1004400004FA02F407D9691807F1FF3C2FD28B4256
:100450002DD9023F2944CB1A81B2B3FBFEF00EFB2B
:10046000103341EA034100FB08F38B4207D96918B6
:1004700000F1FF3C17D28B4215D902382944C91A22
:1004800040EA07473BE73746304609E70746E7E6D5
:100490001846FBE64145ABD2B8EB020A69EB0E0207
:1004A00001381346A4E76046E9E7184695E7674632
:1004B000D1E781467CE702382C4447E7ACF1020CD7
:1004C0002B442FE7384608E73746E9E6704700BF78
:1004D00010F8012B11F8013B012A28BF9A42F7D0EE
:1004E000D01A7047034613F8012B002AFBD1181AC3
:1004F000013870470000000000000000000000000C
:1005000001F0FF01102A2BDB10F0070F08D010F8C4
:10051000013B013A8B422DD010F0070F42B3F6D1C8
:10052000F0B441EA012141EA014122F007047FF0E1
:1005300000070023F0E80256083C85EA010586EA38
:10054000010685FA47F5A3FA87F586FA47F6A5FA74
:1005500087F68EB9EED1F0BC01F0FF0102F0070280
:1005600032B110F8013B013A83EA010313B1F8D12B
:100570000020704701387047002D06BF354603380C
:10058000073815F0010F07D1013015F4807F02BF45
:10059000013015F4C03F0130F0BC0138704700BF96
:1005A00010B50446FFF79EFF4FF0FF3382B221469D
:1005B000014802F0C9FD10BD7847002008B50122AE
:1005C0000749084806F03CFD074B187018B9074862
:1005D000FFF7E6FF08BD0648FFF7E2FFFAE700BFB6
:1005E0000848002068580020A445002028840008FE
:1005F0000884000808B501220749002006F020FD04
:10060000064B187018B10648FFF7CAFF08BD054829
:10061000FFF7C6FFFAE700BF08480020A445002006
:100620006C8400084884000870B594B00546142016
:1006300007F072F80446294607F05EF9214668463D
:1006400006F030FD304B1870B0B155E01E2007F0B9
:1006500063F805462D4E334622462D4907F02CF906
:10066000334622462B49284607F026F92846FFF74D
:1006700097FF284607F058F82749684606F08CFD92
:10068000214B1870002834D1234B9B7E8BB3224B17
:100690001B7B13F0100FD9D01C492048FFF718FF1F
:1006A0000028E9D019491E48FFF712FF0028E3D0BF
:1006B0001E2007F031F80646144D2A46194907F066
:1006C000FBF83046FFF76CFF304607F02DF8204668
:1006D000FFF708FF06462A461349201807F0ECF8F2
:1006E0002046FFF7A1FF084B187010B90023A3554F
:1006F000C2E7684606F03CFD204607F015F8024BBD
:10070000187814B070BD00BFA4450020C245002079
:10071000C4840008D4840008A84500208C84000804
:1007200098840008B4840008C08400082DE9F04FC4
:100730008DB000240794089409940A940B940194B2
:10074000564B1A6B42F010021A631A6B02F0100239
:100750000192019A02941A6B42F004021A631A6B16
:1007600002F004020292029A03941A6B42F0800291
:100770001A631A6B02F080020392039A04941A6BB4
:1007800042F001021A631A6B02F001020492049A09
:1007900005941A6B42F002021A631A6B02F002020D
:1007A0000592059A06941A6B42F008021A631B6BB5
:1007B00003F008030693069B394E22460821304673
:1007C00000F034FDDFF8E09001221146484600F0C9
:1007D0002DFDDFF8D88022464FF21001404600F090
:1007E00025FD082707970125089509940A9407A96C
:1007F000304600F037FC0795089509940A9407A93C
:10080000484600F02FFC07970227089709940A949E
:100810004FF0050ACDF82CA007A9484600F022FCAD
:100820000795DFF88C90CDF82090099407A91D4812
:1008300000F018FC0423079308940994DFF874B0BF
:1008400007A9584600F00EFC4FF480630793089701
:1008500009940A94CDF82CA007A9584600F002FC90
:100860004FF210030793089509940A9407A940468C
:1008700000F0F8FB202307930894099407A9404649
:1008800000F0F0FB0797CDF82090099407A93046B7
:1008900000F0E8FB0DB0BDE8F08F00BF003802406B
:1008A000001002400000024000080240000C02401C
:1008B000000012100004024008B50948094B03600B
:1008C000094B436000238360C3604FF480420261A0
:1008D00043618361C361036201F09CFA08BD00BFFC
:1008E000CC46002000540040A086010008B509480D
:1008F000094B03604FF40072426000238360C360C1
:100900000261064A42618361C361036201F05CFBDC
:1009100008BD00BFB8470020003C00400077010040
:1009200008B50B480B4B03604FF482734360002300
:100930008360C360036143614FF400728261C361ED
:100940000362436283620A23C36202F051FA08BD64
:10095000204700200030014008B50848084B0360DC
:100960004FF4E133436000238360C36003610C22D2
:1009700042618361C36102F0B8FB08BD7847002083
:100980000044004070B598B0302200210DEB020009
:1009900006F0D2FE00240794089409940A940B945C
:1009A00003940494059406940194204B1A6C42F02D
:1009B00080521A641B6C03F080530193019B0294D4
:1009C0001B4B1A6842F480421A601B6803F4804390
:1009D0000293029B01260C964FF480330D9302255F
:1009E00012954FF480031393082314934FF4A873C4
:1009F00015931695072317930CA801F0DDFD0F231F
:100A00000793089509944FF4A0530A934FF4805329
:100A10000B93052107A802F031F80396C023049335
:100A2000059503A802F000F918B070BD0038024027
:100A30000070004008B5044B1B6883F30888034B23
:100A40001B68984708BD00BF0000010804000108AA
:100A500008B500F059FAFFF795FFFFF767FEFFF7BB
:100A60002BFFFFF743FFFFF75BFF06F07BFCFFF771
:100A700073FF02F099FF002242F21071114800F05A
:100A8000AFF906F08FFC4FF480410F4800F0D4FB23
:100A90000A2000F065FA0B4B186800F0DBF900281B
:100AA000EFD0084B186800F0C1F94FF480510648A8
:100AB00000F0C2FB054B1B6813F0020FE1D1FFF7FA
:100AC000B9FFDEE7AC000020000C0240A04500208A
:100AD0007047000000B583B0002100910C4B5A6CA8
:100AE00042F480425A645A6C02F480420092009AA6
:100AF00001911A6C42F080521A641B6C03F080530F
:100B00000193019B072000F03FFA03B05DF804FB5E
:100B10000038024030B589B0002303930493059355
:100B2000069307930268144B9A4201D009B030BD76
:100B300000250195114C236B43F002032363236BC3
:100B400003F002030193019B4FF4107303931223EC
:100B50000493012305930423079303A9084800F095
:100B600081FA0295236C43F400132364236C03F48D
:100B700000130293029BD9E7005400400038024062
:100B80000004024070B588B00023039304930593DA
:100B90000693079302681E4B9A4201D008B070BDBD
:100BA0000024009403F5FE331A6C42F400421A64E8
:100BB0001A6C02F400420092009A01941A6B42F0FF
:100BC00001021A631A6B02F001020192019A029467
:100BD0001A6B42F004021A631B6B03F004030293C6
:100BE000029B10230393022604960625079503A96A
:100BF000084800F037FA4FF4A45303930496059481
:100C00000694079503A9044800F02CFAC6E700BF34
:100C1000003C0040000002400008024000B589B0DE
:100C20000023039304930593069307930268144BE0
:100C30009A4202D009B05DF804FB0021019103F54E
:100C400084335A6C42F480525A645A6C02F48052D3
:100C50000192019A02911A6B42F001021A631B6B16
:100C600003F001030293029BE02303930223049306
:100C70000523079303A9034800F0F4F9DAE700BF5E
:100C8000003001400000024000B589B0002303930A
:100C900004930593069307930268154B9A4202D07A
:100CA00009B05DF804FB0021019103F5FA331A6CD9
:100CB00042F400321A641A6C02F400320192019A72
:100CC00002911A6B42F001021A631B6B03F00103DD
:100CD0000293029B0C2303930223049303230693A2
:100CE0000723079303A9034800F0BCF9D8E700BF26
:100CF00000440040000002407047FEE7FEE7FEE7C8
:100D0000FEE770477047704708B500F017F900F02C
:100D1000A5F908BD08B5024800F095FF08BD00BF61
:100D2000806C002008B503460B4A126842B10A4A9B
:100D3000106803446A46934206D8074A136008BD08
:100D4000054A06491160F2E706F0BCFC0C2303607B
:100D50004FF0FF30F3E700BFB0000020486F0020E5
:100D6000054BD3F8882042F47002C3F888204FF076
:100D700000629A60704700BF00ED00E0064B1B6800
:100D80003BB1012000E001301B69002BFBD1013099
:100D900070470120704700BF00480020F8B50746A3
:100DA0000E4B1C68142006F0B7FCA8B105460026BF
:100DB0004672FFF7E3FF286038602E61074B1B681F
:100DC00023B9064B1D60012007E01C462369002B58
:100DD000FBD12561012000E00020F8BD0048002083
:100DE00070B504460E46154603685BB10E4B1B6892
:100DF000BBB11968226891420AD01B69002BF8D157
:100E000000220CE0FFF7CAFF02460028EED106E000
:100E100001225A720021D96099725E601D721046DB
:100E200070BD0022FBE700BF00480020084B1B6894
:100E30005BB11A68824204D01B69002BF9D10020F3
:100E4000704700225A72012070470020704700BF8F
:100E5000004800200A4B1B6883B11A68824204D004
:100E60001B69002BF9D1002070479A7A012A01D022
:100E70000020704700229A720120704700207047BE
:100E8000004800200D4B1B683BB97047DA680132FF
:100E9000DA6005E01B69002BF7D05A7A012AF5D0F9
:100EA000D9685A689142F5D301229A720022DA6019
:100EB0001A7A002AEED15A72ECE700BF00480020EF
:100EC00010B504460E4B18784FF47A73B3FBF0F369
:100ED0000C4A1068B0FBF3F000F0AAF868B90F2CC8
:100EE00001D901200AE0002221464FF0FF3000F036
:100EF0005DF8034B5C60002000E0012010BD00BFE6
:100F0000040000200000002008B50B4B1A6842F4D2
:100F100000721A601A6842F480621A601A6842F419
:100F200080721A60032000F02FF80020FFF7C8FF3E
:100F3000FFF7D0FD002008BD003C0240034A1168C5
:100F4000034B1B780B441360704700BF044800201C
:100F500004000020014B1868704700BF04480020BF
:100F600038B50446FFF7F6FF0546B4F1FF3F02D05F
:100F7000044B1B781C44FFF7EDFF401BA042FAD343
:100F800038BD00BF04000020074AD36823F4E063A3
:100F90001B041B0C000200F4E060184340F0BF602B
:100FA00040F40030D060704700ED00E030B4174BE3
:100FB000DB68C3F30223C3F10704042C28BF042415
:100FC0001D1D062D18D9033B4FF0FF3505FA04F41B
:100FD00021EA0401994005FA03F322EA03031943C5
:100FE00000280BDB0901C9B200F1604000F5614047
:100FF00080F8001330BC70470023E5E700F00F00D5
:101000000901C9B2024B1954F4E700BF00ED00E03A
:1010100014ED00E0002807DB00F01F024009012367
:101020009340024A42F82030704700BF00E100E0E0
:101030000138B0F1807F0AD2064B5860064AF02191
:1010400082F823100020986007221A607047012060
:10105000704700BF10E000E000ED00E008B5FFF7CA
:1010600011FF08BD00230F2B00F2D780F0B583B02D
:1010700039E0072200E00022AA403A430234674DDB
:1010800045F82420664A1468F24302EA04054F68D2
:1010900017F4803F01D046EA0405614C256064687E
:1010A00002EA04054F6817F4003F01D046EA040540
:1010B0005B4C6560A46802EA04054F6817F4801F62
:1010C00001D046EA0405564CA560E46822404D680C
:1010D00015F4001F01D046EA0402514CE2600133CE
:1010E0000F2B00F2988001229A400C6804EA020655
:1010F000B242F4D14C68651E012D03D9112C01D0E8
:10110000122C12D185685F000324BC4025EA040537
:10111000CC68BC402C438460456825EA02054C68D5
:10112000C4F300129A402A434260C4685F0003225D
:10113000BA40D24314408D68BD402543C5604C6819
:10114000022C01D0122C13D1DD08083550F825E00F
:1011500003F007044FEA840C0F2404FA0CF42EEA7F
:10116000040E0C6904FA0CF444EA0E0440F825401D
:10117000046822404C6804F00304BC40224302602F
:101180004A6812F0805FAAD000220192254A546C6E
:1011900044F480445464526C02F480420192019AF7
:1011A0009C08A51C1D4A52F8257003F00302950007
:1011B0000F22AA4027EA02071B4A90423FF45BAF86
:1011C00002F5806290421AD002F58062904218D0F7
:1011D00002F58062904216D002F58062904214D0EF
:1011E00002F58062904212D002F58062904210D0E7
:1011F00002F5806290423FF43CAF08223CE70122B6
:101200003AE7022238E7032236E7042234E70522D0
:1012100032E7062230E703B0F0BD704700380140E6
:10122000003C0140003802400000024012B90904AD
:101230008161704781617047436931EA030301D0DE
:10124000816170470904816170470000F8B5066844
:10125000346A04F00F07C4F34343C4F30A14022BA7
:101260002ED16CB307EB8702D3000344596C39B31A
:1012700005462246304602F09BF8BA003A44D300B5
:101280002B445A6C22445A64DA6C2244DA6406EB2A
:101290004713D3F810150B4A0A408AB1D3F800253A
:1012A00022F0804242F00042C3F80025BB00D91969
:1012B000CA002A4492F8503083F0010382F850307B
:1012C000F8BD00BF0000F81FF0B585B09DF82850AC
:1012D0009DF82C60BDF8307090F8B842012C41D0D8
:1012E000012480F8B8424FEA810C8C444FEACC04C8
:1012F00004444FF0000C84F83DC084F83830A4F862
:10130000407084F8391084F83F6002F07F0C84F854
:101310003AC012F0800F1BD101EB810C4FEACC04D4
:1013200004444FF0000C84F83BC0044601EB810CF0
:101330004FEACC00204480F83C500297019600957B
:10134000206802F041F9002384F8B83205B0F0BDFE
:1013500001EB810C4FEACC0404444FF0010C84F8FB
:101360003BC0E2E70220F1E790F8B832012B0BD046
:1013700010B50446012380F8B832006802F0ADF9D8
:10138000002084F8B80210BD02207047002845D024
:10139000F0B58BB00646046890F8B932002B38D00F
:1013A000032386F8B932E36B13F4807F01D1002365
:1013B0003361306801F0A3FF344654F810CB6D461A
:1013C0000FCC0FC50FCC0FC594E8030085E80300D0
:1013D000371D97E80E00604601F046FF0121306896
:1013E00001F093FF344654F810CB6D460FCC0FC577
:1013F0000FCC0FC594E8030085E8030097E80E00C2
:10140000604602F053F8012386F8B93200200BB091
:10141000F0BD80F8B83205F0CDFFC1E7012070477C
:10142000F8B59DF81870BDF820608D000D44EC00F3
:10143000044484F83B2084F83F308FB98D000D447C
:10144000EC000444032584F842509DF8245084F8AD
:101450003D50032B00F29680DFE803F00A8D2F5EEB
:1014600001EB8105EC000444022584F84250F0E7CA
:10147000012F40F08780002A40F0848036B901EBCC
:101480008102D3000344012283F8512001EB810241
:10149000D300034493F851303BB901EB8102D300F0
:1014A0000344002283F842206CE001EB8102D30068
:1014B0000344022283F8422064E0B2B901EB8102C6
:1014C000D300034493F851303BB901EB8102D300C0
:1014D0000344002283F8422054E001EB8102D30050
:1014E0000344022283F842204CE001EB8102D30046
:1014F000034493F850303BB901EB8102D30003441D
:10150000002283F842203DE001EB8102D300034436
:10151000022283F8422035E0B2B901EB8102D30008
:10152000034493F851303BB901EB8102D3000344EB
:10153000002283F8422025E001EB8102D30003441E
:10154000022283F842201DE001EB8102D300034414
:1015500093F850303BB901EB8102D30003440022E1
:1015600083F842200EE001EB8102D3000344022203
:1015700083F8422006E001EB8102D30003440022FD
:1015800083F842208A005418E3000344079C5C64FB
:101590009E64002483F85C40DC6483F8391083F88F
:1015A0005D401144CB0003F13801027C0144006826
:1015B00002F00EF9F8BD30B583B005460468D4F8E2
:1015C00040340193D4F840340093009B23F02E0361
:1015D0000093019B13F0020F07D0019B13F0010F42
:1015E00025D1009B43F002030093019B13F0080FE9
:1015F00010D0009B43F008030093019B13F0040FED
:101600002DD0AB69022B15D0EB68012B22D02846D8
:1016100005F03FFF019B13F0200F03D0009B43F028
:1016200020030093009BC4F8403403B030BD05F0A4
:1016300023FFD6E7019B03F4C023B3F5802F04D02A
:101640000121286801F0D0FEE1E70221286801F0BD
:10165000CBFEDCE74EF66022C4F80424D7E7284628
:1016600005F01DFFD6E7F8B506460D46076807EBFF
:10167000411707F5A064A36813F0040F40D00423BA
:10168000A360E36843F00203E360A36813F4007F00
:1016900040F08280A36813F0010F00F0B08033693E
:1016A0004BB1AA002A44D30033449A6C2169C1F398
:1016B0001201521ADA64AA002A44D30033440122E8
:1016C00083F85D2000219965A26093F83F30002BDC
:1016D0006ED0022B6CD0032B7FD0012B72D1AA00CD
:1016E0002A44D3003344012283F85C2093F850103D
:1016F000514083F850102946304605F0C9FE61E09C
:10170000A36813F4807F06D1A36813F0200F14D0D0
:101710002023A360B9E74FF48073A36001EB81023B
:10172000D3000344072283F85D20E36843F00203FB
:10173000E360006801F0D1FFA7E7A36813F0080F8A
:1017400017D1A36813F4806F9FD0E36843F00203BE
:10175000E360006801F0C1FF1023A36005EB850280
:10176000D3003344082283F85D204FF48063A360E4
:101770008BE7E36843F00203E36001EB8102D300EF
:101780000344052283F85D201023A3600823A3608F
:10179000006801F0A2FF78E7E36843F00203E3602A
:1017A0002946306801F099FF4FF40073A36013E0FD
:1017B000E36843F00203E3602946306801F08DFFDF
:1017C0001023A360AB005919CA00324492F850307C
:1017D00083F0010382F85030F8BDD7F8003543F0AC
:1017E0000053C7F8003505EB8502D30033440122CE
:1017F00083F85C202946304605F04AFEE2E7A368FC
:1018000013F0020F6FD0E36823F00203E36005EBEF
:101810008502D300334493F85D30012B14D0052B9F
:1018200026D0062B2CD0082B2AD0032B4BD0072BED
:1018300011D1AA002A44D30033449A6D01329A652B
:10184000042283F85C2006E005EB8502D3003344D4
:10185000012283F85C200223A36005EB8502D300FC
:10186000334493F85C202946304605F011FEB3E777
:1018700005EB8502D3003344052283F85C20EAE7B8
:10188000AA002A44D30033449A6D01329A65032A90
:1018900011D9AA002A44D300334400229A650422B5
:1018A00083F85C20D7F8003523F0804343F00043F1
:1018B000C7F80035CFE705EB8502D3003344022299
:1018C00083F85C20EEE705EB8502D3003344022267
:1018D00083F85C20D7F8003523F0804343F00043C1
:1018E000C7F80035B7E7A36813F0800F1AD1A368D3
:1018F00013F0100F3FF470AF05EB8502D3003344B3
:1019000093F83F30032B25D00BB1022B07D105EB09
:101910008502D300334400229A6533694BB3102308
:10192000A36059E7E36843F00203E360AB00591991
:10193000CA003244916D013191652B44DA00324482
:10194000062382F85D302946306801F0C6FE802308
:10195000A36041E705EB8502D300334400229A657A
:10196000E36843F00203E3602946306801F0B5FE06
:10197000D5E705EB8502D3003344032283F85D20CD
:10198000E36843F00203E3602946306801F0A5FEF6
:10199000C5E7F8B5036803EB411303F5A064A2683B
:1019A00012F0040F24D10E460546A26812F0200F53
:1019B00025D02023A36001EB8102D3001A46034403
:1019C00093F83D30012B19D18B000244002182F89D
:1019D0003D103344DA000244022382F85C30E368AD
:1019E00043F00203E3603146006801F076FE05E053
:1019F0000423A360E36843F00203E360F8BDA26838
:101A000012F0400F34D1A26812F4007F4AD1A268CC
:101A100012F0010F51D1A26812F0080F62D1A26832
:101A200012F0100F6FD08A000A44D3000344002242
:101A30009A65032283F85D2093F83D306BB901EB82
:101A40008102D300034493F83C3033B901EB8102A7
:101A5000D3000344012283F83D20E36843F00203EE
:101A6000E3603146286801F038FE1023A360C5E723
:101A70008B005918CA000244042182F85D1001212C
:101A800082F83D103344DA00024400239365E36892
:101A900043F00203E3603146006801F01EFE40237C
:101AA000A360ABE7E36843F00203E360006801F082
:101AB00014FE4FF40073A360A0E78F007A18D300E0
:101AC000034400229A65E36843F00203E360006880
:101AD00001F003FE0123A360B919C800284480F86F
:101AE0005D308BE70823A360E36843F00203E36003
:101AF000006801F0F2FD06EB8601C80028440523CA
:101B000080F85D307AE7A26812F0800F39D1A268C0
:101B100012F4806F46D1A26812F0020F3FF46EAF4C
:101B2000E26822F00202E26001EB8101CA00114684
:101B3000024492F85D20012A48D0032A5AD0042A90
:101B40006CD0052A72D0062A01D0082A59D1B100DA
:101B50003144CA002A44916D0131916503296BD942
:101B6000282202FB065200219165042182F85C10B4
:101B7000D3F8002522F0804242F00042C3F800254D
:101B80003FE0E36843F00203E360006801F0A5FD75
:101B900006EB8601CB002B44062283F85D208023D0
:101BA000A3602BE7E36843F00203E360006801F001
:101BB00094FD1023A3604FF48063A36006EB8601BD
:101BC000CB002B44082283F85D2017E70B46034423
:101BD000012283F85C2093F83F30023BDBB2934252
:101BE0000FD80B46034493F8512082F0010283F88A
:101BF000512006E006EB8602D3000344022283F85C
:101C00005C200223A36006EB8602D3002B4493F8EA
:101C10005C203146284605F03BFCEFE606EB8602E9
:101C2000D3000344022283F85C20EAE7282303FB65
:101C3000060383F85C20E4E7282202FB0652022117
:101C400082F85C1094E7F8B504460568284601F070
:101C5000C7FB012800D0F8BD206801F0BDFB0028BB
:101C6000F9D0206801F0B8FB10F4001F03D02368FE
:101C70004FF400125A61206801F0AEFB10F4801F8F
:101C800003D023684FF480125A61206801F0A4FB4E
:101C900010F0806F03D023684FF080625A61206893
:101CA00001F09AFB10F0020F02D0236802225A6161
:101CB000206801F091FB10F0005F08D023684FF01E
:101CC00000525A61D5F8403413F0010F25D0206836
:101CD00001F082FB10F0807F27D1206801F07CFBAF
:101CE00010F0080F25D1206801F076FB10F0007F7E
:101CF00026D1206801F070FB10F0100FABD02268E5
:101D0000936923F0100393612046FFF79FFA22683E
:101D1000936943F0100393619DE7204605F0B2FB01
:101D20000121206801F060FBD1E72046FFF743FC6A
:101D3000D3E7204605F09AFB236808225A61D2E7D0
:101D4000206801F0C5FC0746002604E0F1B22046F9
:101D5000FFF71FFE0136A368B34212D906F00F0346
:101D600027FA03F313F0010FF4D005EB4613D3F871
:101D7000003513F4004FE9D0F1B22046FFF773FCB1
:101D8000E8E723684FF000725A61B2E738B590F87F
:101D9000B832012B0ED00446012580F8B8520068F5
:101DA00001F0A7FA2946206801F05DFB002084F8C5
:101DB000B80238BD0220FCE790F8B832012B0BD0F6
:101DC00010B50446012380F8B832006801F0ACFD7C
:101DD000002084F8B80210BD0220704708B50068E2
:101DE00001F022FB08BD01EB8101CB00184490F803
:101DF0005C00704701EB8101CB001844C06C704758
:101E000008B5006801F0DBFB08BD08B5006801F00B
:101E1000CBFB08BD002800F0C880F8B5044690F858
:101E20003D30002B75D0242384F83D3022681368A0
:101E300023F0010313602268136843F40043136026
:101E40002268136823F40043136000F0CDFE62683B
:101E5000584B9A4262D8584B98428CBF00230123BA
:101E6000002B40F0A480554BA3FB00239B0C216862
:101E70004A6822F03F021A434A6025682A6A22F023
:101E80003F0266684B498E424ED8013313432B62A2
:101E90002568E96921F44F4121F0FF016368454A53
:101EA00093424BD801385B00B0FBF3F30133C3F32B
:101EB0000B03042B38BF04230B43EB6121680B6831
:101EC00023F0C003E269206A024313430B602168D8
:101ED0008B6823F4034323F0FF032269E068024385
:101EE00013438B602168CB6823F0FF036269A0690C
:101EF00002431343CB602268136843F0010313606D
:101F000000202064202384F83D30206384F83E00C4
:101F1000F8BD80F83C30FEF7FDFD84E7284B984281
:101F20008CBF002301239BE74FF4967101FB03F361
:101F30002449A1FB03139B090133A7E7A268BAB99F
:101F4000461E03EB4307B6FBF7F60136C6F30B0656
:101F5000B6FA86F6760936BBC2B9013803EB4303FD
:101F6000B0FBF3F30133C3F30B0242F40043A3E7E6
:101F7000461E03EB830707EB8707B6FBF7F6013630
:101F8000C6F30B06B6FA86F67609E4E7013803EBEA
:101F9000830303EB8303B0FBF3F20132C2F30B02C2
:101FA00042F4404388E7012386E70120704701207F
:101FB000AEE700BFA08601007F841E0083DE1B43C6
:101FC000FF083D00D34D6210002800F0BF8070B5BF
:101FD000044690F84130002B51D0022284F8412071
:101FE0002168CB6923F47B6323F00F03CB61236863
:101FF0001A626369934263D0E368002B46D11025CF
:10200000A368202B00D86D00012000F0B7FE2369E3
:10201000B3F5007F3CD0B0FBF5F000EB800043004F
:102020006269B3FBF2F30533494AA2FB0323DB08E1
:1020300003F001029B1A5B081202991EFD2941D888
:1020400021690A43216813430B622168CB6923F499
:102050007B6323F00F036268A0680243E0680243D9
:10206000A0690243134343F40063CB61236A012B4D
:102070002ED000206064012384F8413070BD80F8C8
:102080004030344B4363FEF77DFDA6E72025B7E7DC
:10209000E36853B1AD00B0FBF5F000EB8000430006
:1020A0006269B3FBF2F30533BEE7ED00B0FBF5F078
:1020B00000EB800043006269B3FBF2F30533B3E742
:1020C0000022BAE7636C43F0100363640120D5E794
:1020D000214B63632268214B9A421FD04FF040226C
:1020E000D36923F47B6323F00F03D36122681B4B76
:1020F0009A4215D04FF0402302221A622268174BF1
:102100009A4210D04FF04021CA6992B26368B3F589
:10211000007F0AD0C3B94FF4807608E0104ADFE7A9
:10212000A3F58063E8E70E49EEE74FF48076A068F8
:10213000E568238B2B439BB203439BB2334313438A
:1021400043F40063CB6194E70026F0E70120704779
:10215000CDCCCCCCD7210008E123000800380040CA
:1021600000340040704708B5426A03681288DA609C
:10217000436A02334362438D013B9BB24385438DE7
:102180009BB203B108BD0268536823F0A0035360FB
:10219000012380F84130FFF7E5FFF3E7704708B50A
:1021A0000368DA68C36A1A80C36A0233C362438E63
:1021B000013B9BB24386438E9BB203B108BD0268CC
:1021C000536823F060035360012380F84130FFF728
:1021D000E5FFF3E7704710B584B0044602689368E2
:1021E000039390F84130DBB2042B06D094F84130D1
:1021F000DBB2032B2CD004B010BD039B13F0010FF6
:1022000003D0536813F0400F1FD1039B13F0400F0E
:10221000ECD023685A6812F0200FE7D05A6822F0F9
:1022200060025A60002301932368DA6801929B6878
:102230000193019B012384F84130636C43F0020356
:1022400063642046FFF7C6FFD0E7FFF7A8FFDCE78F
:10225000039B13F0020F04D023685B6813F0800F18
:102260001DD1039B13F0080FC5D023685A6812F0E4
:10227000200FC0D05A6822F0A0025A6000230293B7
:1022800023689B680293029B012384F84130636CAE
:1022900043F0040363642046FFF79CFFABE720464E
:1022A000FFF761FFDDE7704708B5436A9A1C426299
:1022B00002681B88D360438D013B9BB24385438DED
:1022C0009BB23BB90268536823F0A0035360438E6E
:1022D0009BB203B108BD012380F84130FFF7E3FF53
:1022E000F8E7000008B50268144B9A421BD04FF083
:1022F0004023DA68C36A991CC1621A80438E013B8D
:102300009BB24386438E9BB263B902680B4B9A42E1
:102310000CD04FF04022536823F060035360438D8C
:102320009BB22BB108BDA3F58063E2E7044AF2E754
:10233000012380F84130FFF7B6FFF3E70038004093
:102340000034004008B5436A9A1C42621A8801684A
:10235000124B994217D04FF04023DA60438D013B76
:102360009BB24385438D9BB263B902680B4B9A4283
:102370000CD04FF04022536823F0A0035360438EEB
:102380009BB22BB108BDA3F58063E6E7044AF2E7F0
:10239000012380F84130FFF786FFF3E70038004063
:1023A0000034004008B50368DA68C36A991CC1624A
:1023B0001A80438E013B9BB24386438E9BB23BB94E
:1023C0000268536823F060035360438D9BB203B1EE
:1023D00008BD012380F84130FFF765FFF8E70000F2
:1023E00010B586B0044603689A680592704A934215
:1023F0006FD04FF04022916804915B68039353685B
:1024000002936368B3F5007F01D0002B70D1059B68
:1024100013F0020F03D0039B13F0800F5CD1049BD9
:1024200013F0010F03D0029B13F0400F58D1049B0F
:1024300013F0400F24D0029B13F0200F20D022680D
:102440005B4B9A4250D04FF04022536823F0600318
:1024500053602268536823F0A00353600023009365
:102460002368DA6800929B680093009B012384F83C
:102470004130636C43F0020363642046FFF7AAFE19
:10248000059B13F0080F22D0039B13F0200F1ED0E2
:102490002268536823F0A00353602268444B9A4299
:1024A00024D04FF04022536823F060035360002390
:1024B000019323689B680193019B012384F84130B9
:1024C000636C43F0040363642046FFF783FE06B0A9
:1024D00010BDA2F580628EE72046FFF7E5FE9EE77D
:1024E0002046FFF7FFFEA2E7324AAEE7314ADAE7BD
:1024F000049B13F0020F03D0029B13F0800F4AD10C
:10250000059B13F0010F03D0039B13F0400F46D13E
:10251000059B13F0400F1CD0039B13F0200F18D025
:102520002268536823F0600353602268204B9A426C
:1025300039D04FF04022536823F0A00353600123A9
:1025400084F84130636C43F0020363642046FFF774
:1025500041FE049B13F0080FB9D0029B13F0200F2B
:10256000B5D02268124B9A421FD04FF040225368D8
:1025700023F0A00353602268536823F06003536084
:10258000012384F84130636C43F004036364204604
:10259000FFF720FE9BE72046FFF7D4FEB0E720467A
:1025A000FFF700FFB4E7034AC5E7024ADFE700BFD1
:1025B0000038004000340040002800F0E48170B58D
:1025C00082B00446036813F0010F3BD0A74B9B6811
:1025D00003F00C03042B2CD0A44B9B6803F00C03DA
:1025E000082B21D06368B3F5803F4FD0B3F5A02FFF
:1025F00052D09E4B1A6822F480321A601A6822F474
:1026000080221A606368002B50D0FEF7A3FC0546B9
:10261000964B1B6813F4003F14D1FEF79BFC401B44
:102620006428F5D90320B3E1904B5B6813F4800F65
:10263000D8D08E4B1B6813F4003F03D06368002B87
:1026400000F0A381236813F0020F55D0874B9B68DD
:1026500013F00C0F3ED0854B9B6803F00C03082B46
:1026600033D0E368002B68D0814B01221A60FEF75B
:1026700071FC05467D4B1B6813F0020F54D1FEF729
:1026800069FC401B0228F5D9032081E1774A1368D1
:1026900043F480331360B5E7744B1A6842F4802228
:1026A0001A601A6842F480321A60ABE7FEF752FCF7
:1026B00005466E4B1B6813F4003FC3D0FEF74AFC7F
:1026C000401B6428F5D9032062E1684B5B6813F472
:1026D000800FC6D1654B1B6813F0020F04D0E3686E
:1026E000012B01D0012053E1604A136823F0F80365
:1026F000216943EAC1031360236813F0080F40D037
:10270000636963B35B4B01221A60FEF723FC054645
:10271000564B5B6F13F0020F33D1FEF71BFC401BCF
:102720000228F5D9032033E1504A136823F0F80357
:10273000216943EAC1031360DEE74D4B00221A60B2
:10274000FEF708FC0546494B1B6813F0020FD3D077
:10275000FEF700FC401B0228F5D9032018E1454B89
:1027600000221A60FEF7F6FB0546404B5B6F13F044
:10277000020F06D0FEF7EEFB401B0228F5D903201E
:1027800006E1236813F0040F79D0384B1B6C13F06B
:10279000805F33D100230193344B1A6C42F0805296
:1027A0001A641B6C03F080530193019B0125324B8B
:1027B0001B6813F4807F23D0A368012B34D0052B32
:1027C00038D02A4B1A6F22F001021A671A6F22F0D2
:1027D00004021A67A368002B36D0FEF7BBFB06463F
:1027E000224B1B6F13F0020F48D1FEF7B3FB801B87
:1027F00041F288339842F3D90320C9E00025D6E797
:102800001D4A136843F480731360FEF7A3FB06466A
:10281000194B1B6813F4807FCED1FEF79BFB801B06
:102820000228F5D90320B3E0104A136F43F00103E7
:102830001367CFE70D4B1A6F42F004021A671A6F45
:1028400042F001021A67C5E7FEF784FB0646074B14
:102850001B6F13F0020F11D0FEF77CFB801B41F2BF
:1028600088339842F3D9032092E000BF0038024039
:1028700000004742800E474200700040EDB9A36956
:10288000002B00F08480454A926802F00C02082A6E
:1028900051D0022B17D0424B00221A60FEF75AFB90
:1028A00004463E4B1B6813F0007F42D0FEF752FBFC
:1028B000001B0228F5D903206AE0384A136C23F084
:1028C00080531364DBE7364B00221A60FEF742FBAD
:1028D0000546324B1B6813F0007F06D0FEF73AFB2B
:1028E000401B0228F5D9032052E0E369226A134312
:1028F000626A43EA8213A26A5208013A43EA024337
:10290000E26A43EA0263254A5360254B01221A60BA
:10291000FEF720FB0446214B1B6813F0007F06D115
:10292000FEF718FB001B0228F5D9032030E0002039
:102930002EE000202CE0012B2CD0184B5B6803F418
:102940008001E269914201D0012021E003F03F02C1
:10295000216A8A4201D001201AE0616A47F6C072FA
:102960001A408A4201D0012012E003F44032A16AE9
:102970008A4201D001200BE003F07063E26A9342C7
:102980000AD0012004E001207047012000E000206F
:1029900002B070BD0120FBE70020F9E700380240DB
:1029A00060004742324B9B6803F00C03042B5CD061
:1029B000082B01D02F4870472DE9F04B2C4B5A685B
:1029C00002F03F025B6813F4800F2BD0284B5B684A
:1029D000C3F388131E4600275C010025E41A65EB4B
:1029E0000705A90141EA9461A001001B61EB050103
:1029F000CB0043EA5073C400A01943EB07014B021C
:102A000043EAD0534402204619460023FDF7E0FB79
:102A1000174B5B68C3F3014301335B00B0FBF3F07A
:102A2000BDE8F08B124B5B68C3F388131E4600278A
:102A30005C010025E41A65EB0705A90141EA9461F0
:102A4000A001001B61EB0501CB0043EA5073C400F9
:102A5000A01943EB07018B0243EA905384022046FE
:102A600019460023FDF7B4FBD2E70348704700BFC7
:102A7000003802400024F40000127A00002800F020
:102A80009E8070B50446504B1B6803F00F038B42C9
:102A900009D2CBB24C4A1370136803F00F038B4278
:102AA00001D0012070BD236813F0020F17D013F07E
:102AB000040F04D0454A936843F4E05393602368BD
:102AC00013F0080F04D0414A936843F460439360C5
:102AD0003E4A936823F0F003A068034393600D46D9
:102AE000236813F0010F32D06368012B21D09A1EA6
:102AF000012A25D9354A126812F0020F61D03349F4
:102B00008A6822F0030213438B60FEF723FA06461D
:102B10002E4B9B6803F00C036268B3EB820F16D058
:102B2000FEF718FA801B41F288339842F0D903204F
:102B3000B8E7264A126812F4003FE0D10120B1E75D
:102B4000224A126812F0007FD9D10120AAE71E4B59
:102B50001B6803F00F03AB4209D9EAB21A4B1A7093
:102B60001B6803F00F03AB4201D001209AE72368F2
:102B700013F0040F06D0154A936823F4E053E1687C
:102B80000B439360236813F0080F07D00F4A936834
:102B900023F46043216943EAC1039360FFF702FF16
:102BA0000A4B9B68C3F30313094AD35CD840094B13
:102BB0001860094B1868FEF783F9002072E70120BE
:102BC000704701206EE700BF003C02400038024021
:102BD0007C7F00080000002008000020014B1868DE
:102BE000704700BF0000002008B5FFF7F7FF044B57
:102BF0009B68C3F38223034AD35CD84008BD00BF5F
:102C0000003802408C7F000808B5FFF7E7FF044B4F
:102C10009B68C3F34233034AD35CD84008BD00BF6E
:102C2000003802408C7F000830B583B0044603684A
:102C300013F0050F06D1236813F0020F2ED10020E8
:102C400003B030BD494B00221A60FEF783F90546F8
:102C5000474B1B6813F0006F06D0FEF77BF9401B53
:102C60000228F5D90320EBE76268A3681B0743EA53
:102C700082133F4AC2F884303C4B01221A60FEF7AF
:102C800069F905463A4B1B6813F0006FD3D1FEF784
:102C900061F9401B0228F5D90320D1E700230193F5
:102CA000334B1A6C42F080521A641B6C03F0805351
:102CB0000193019B2F4A136843F480731360FEF75E
:102CC00049F905462B4B1B6813F4807F06D1FEF7AC
:102CD00041F9401B0228F5D90320B1E7244B1B6FB3
:102CE00013F4407312D0E26802F440729A420DD09D
:102CF0001F4B1A6F22F440721F4901200860002008
:102D000008601A671B6F13F0010F13D1E36803F417
:102D10004072B2F5407F1ED0154A936823F4F81331
:102D2000936013490B6FE268C2F30B0213430B6706
:102D3000002085E7FEF70EF905460D4B1B6F13F0DB
:102D4000020FE3D1FEF706F9401B41F288339842A7
:102D5000F3D9032074E706498A6822F4F81223F0B5
:102D6000704323F4407313438B60DAE768004742F3
:102D70000038024000700040400E474201282AD12E
:102D8000174B9B6813F4000303D0012B25D1154882
:102D90007047134B5B6813F4800F14D0104B5B68C3
:102DA00003F03F031048B0FBF3F00D4AD2F8843033
:102DB000C3F3881300FB03F0D2F88430C3F302732B
:102DC000B0FBF3F07047064B5B6803F03F03074826
:102DD000B0FBF3F0E9E7002070470020704700BF28
:102DE000003802400080BB0000127A000024F4008A
:102DF00000283BD010B504460023836290F8513080
:102E0000002B2ED0022384F851302268136823F05F
:102E1000400313606368A2681343E26813432269A6
:102E2000134362691343A26902F400721343E26917
:102E30001343226A1343A16A22680B431360638B16
:102E400003F00403616A22680B4353602268D3696C
:102E500023F40063D36100206065012384F85130BE
:102E600010BD80F85030FDF7D9FECBE70120704748
:102E70002DE9F04B04460268136923F44053C168FE
:102E80000B43136183680269134342691343C269A8
:102E90001A430168CB6823F4164323F00C03134351
:102EA000CB600268536923F4407381690B4353611B
:102EB000C369B3F5004F3BD00368714A934200F0F9
:102EC000AB8002F58062934200F0A680FFF78CFE93
:102ED0004FF00009061849EB090716EB000B47EB0A
:102EE000090C4FEACC0343EA5B734FEACB029346EB
:102EF0009C4663689A009B0F10EB0B0049EB0C019A
:102F0000FDF766F95F4DA5FB00325109642202FB13
:102F1000110213013233A5FB03235B0903F0F00216
:102F200002EB011203F00F03216813448B60A4E04D
:102F30000368534A934239D002F58062934235D0F8
:102F4000FFF752FE83464FF0000C06184CEB0C07BF
:102F500016EB000847EB0C094FEAC90343EA587324
:102F60004FEAC8029046994662680021921841EBE8
:102F700001031BEB08004CEB0901FDF729F9414D5A
:102F8000A5FB00325109642202FB1102D300323347
:102F9000A5FB03235B095A0002F4F87202EB01124D
:102FA00003F00703216813448B6066E0FFF72CFEF3
:102FB00080464FF00009061849EB090716EB000B95
:102FC00047EB090C4FEACC0343EA5B734FEACB02B1
:102FD00093469C4662680021921841EB010318EB6E
:102FE0000B0049EB0C01FDF7F3F8264DA5FB003271
:102FF0005109642202FB1102D3003233A5FB0323E3
:103000005B095A0002F4F87202EB011203F00703A5
:10301000216813448B6030E0FFF7F6FD4FF00009A4
:10302000061849EB090716EB000B47EB090C4FEAB2
:10303000CC0343EA5B734FEACB0293469C4663683A
:103040009A009B0F10EB0B0049EB0C01FDF7C0F849
:103050000C4DA5FB00325109642202FB1102130141
:103060003233A5FB03235B0903F0F00202EB0112EC
:1030700003F00F03216813448B60BDE8F08B00BFA1
:10308000001001401F85EB512DE9F04105460F4628
:1030900016469846069C2B681B6837EA03030CBF4C
:1030A00001230023B3421DD1B4F1FF3FF3D02CB173
:1030B000FDF750FFA0EB0800A042ECD92A68D368C6
:1030C00023F4D073D3602A68536923F0010353615A
:1030D000202385F8393085F83A30002385F83830D8
:1030E000032000E00020BDE8F08158B310B504468D
:1030F00090F839300BB3242384F839302268D36830
:1031000023F40053D3602046FFF7B2FE2268136910
:1031100023F4904313612268536923F02A03536117
:103120002268D36843F40053D3600020E063202377
:1031300084F8393084F83A3010BD80F83830FDF723
:10314000A3FDD8E7012070472DE9F04383B01E4668
:1031500090F83930DBB2202B56D104460D4690460C
:10316000002956D0002A56D090F83830012B54D080
:10317000012380F838304FF00009C0F83C9021233B
:1031800080F83930FDF7E6FE0746A4F82480A4F85D
:10319000268084F8389010E000963B46002280217B
:1031A0002046FFF771FF002839D12B882268C3F32E
:1031B000080353602369C3B90235E38C9BB2B3B1F2
:1031C000E38C013B9BB2E384A368B3F5805FE3D05B
:1031D00000963B46002280212046FFF755FF00BBAA
:1031E0002A7823685A600135E7E70135E5E700965C
:1031F0003B46002240212046FFF746FF034690B998
:10320000202284F8392000E00223184603B0BDE8EC
:10321000F0830123F9E70123F7E70223F5E703230E
:10322000F3E70323F1E70323EFE700000023013373
:103230000C4A934211D80269002AF8DA036943F074
:103240000103036100230133064A934207D8026950
:1032500012F0010FF7D100207047032070470320C0
:10326000704700BF400D030084B010B5044603A8AA
:1032700080E80E00089B012B1FD1A36B23F4803341
:10328000A363E36823F4840323F04003E360E3686B
:1032900023F44013E3600F9B012B09D02046FFF776
:1032A000C5FF069B012B1BD0BDE8104004B0704742
:1032B000E36843F48013E360F0E7E36843F040031E
:1032C000E3602046FFF7B2FF0C9B23B9A36B43F4E6
:1032D0008033A363E5E7A36B23F48033A363E0E7C4
:1032E000A36843F00603A360A36843F02003A36030
:1032F000DAE7836843F00103836000207047836846
:1033000023F0010383600020704708B5C36823F0F1
:10331000C043C360012909D069B9C36843F0804341
:10332000C3603220FDF71CFE002008BDC36843F0D7
:103330000053C360F5E70120F7E70000890141F081
:103340002001016100230133054A934205D8026937
:1033500012F0200FF7D1002070470320704700BF04
:10336000400D03001023036100230133054A9342FB
:1033700005D8026912F0100FF7D100207047032022
:10338000704700BF400D030070B49DF80C4064B955
:1033900003339D0807E000EB023303F5805351F837
:1033A000046B1E600134AC42F5D3002070BC704742
:1033B00003329208002393420CD210B400F58054DB
:1033C000246841F8044B01339342F7D308465DF873
:1033D000044B704708467047426980691040704747
:1033E000406900F00100704710B400F58064D0F827
:1033F000003423F00303C0F80034D0F8003401F0A7
:1034000003021343C0F80034012905D0022907D074
:1034100000205DF8044B70474BF680336360F7E79C
:1034200041F270736360F3E730B583B00446002562
:103430000195D0F840340193019B23F02E030193B2
:10344000019B43F48073C0F840346420FDF788FD8D
:10345000019B23F48073C4F840340A20FDF780FDFB
:10346000284603B030BD82B000230193D0F8403429
:103470000193019B23F02E030193019B13F4805FC2
:1034800001D101290CD0019B13F4805F05D021B933
:10349000019B23F48053C0F84034002002B07047F1
:1034A000019B43F48053C0F84034ECE784B038B556
:1034B000044605A880E80E0025460023C4F8003E17
:1034C000A36B43F40013A363A36B23F40023A36350
:1034D000A36B23F48023A363E36B13F4807F10D0EA
:1034E000079B012B06D0D4F8003423F00403C4F862
:1034F00000340CE0D4F8003443F00403C4F8003482
:1035000005E0D4F8003423F00403C4F8003410219B
:103510002046FFF713FF2046FFF724FF002209E0B3
:1035200005EB42134FF0FF31C3F808150021C3F833
:103530000C150132069B9342F2D801212046FFF779
:1035400092FFC820FDF70CFD0023A3614FF0FF336D
:103550006361E36B13F4807F17D04FF400736362F1
:1035600003F18073A3620D4BC4F80031089B1BB9B3
:10357000A36943F01003A361A269094B1343A3613C
:103580000020BDE8384004B070478023636203F533
:10359000C003A362034BC4F80031E7E70003E00077
:1035A000080020A3E000400082B000230193D0F87F
:1035B000403401930198C0F3414002B0704700F5D8
:1035C0008060806880B27047F0B506469DF818406C
:1035D00000EB411505F5A0604FF0FF378760032C25
:1035E00065D8DFE804F00256021840F29D47C76034
:1035F00012F0800F09D1F76B17F4807F59D0C7689C
:1036000047F06007C76000200CE0C76847F4807788
:10361000C760002006E040F29D67C76012F0800F8F
:1036200031D1002006F5806ED6F8187401F00F0134
:103630004FF0010C0CFA01F13943C6F81814B169C6
:1036400041F00071B16112F0800F34D100269DF875
:103650001410022932D000219B0503F0FE53D20240
:1036600002F4F0421343A20402F440221343BDF8D3
:103670001C20C2F30A02134333430B43C5F8003541
:10368000032C1ED0F0BDC76847F48077C7600020C8
:10369000C8E740F22527C76012F0800F01D1002053
:1036A000C0E7C76847F4C077C7600020BAE70120C9
:1036B000B8E70020B6E74FF40046C8E74FF4003102
:1036C000CAE7D5F8003543F00053C5F80035D9E70F
:1036D00000F58060406980B2704710B400EB411182
:1036E00001F5A064D1F80035C3F381433BB3022B4D
:1036F00025D0D1F8003543F08043C1F80035D0F82B
:10370000103413F47F0F49D1D1F8003523F0004372
:10371000C1F80035D1F8003543F00043C1F8003559
:10372000D1F8003523F40043C1F8003500230133FC
:10373000B3F57A7F27D82268002AF8DB23E0D1F896
:10374000003543F08043C1F80035C36A13F47F0F9E
:103750001DD1D1F8003523F00043C1F80035D1F870
:10376000003543F00043C1F80035D1F8003523F4AB
:103770000043C1F8003500230133B3F57A7F02D846
:103780002268002AF8DB00205DF8044B7047D1F86E
:10379000003543F00043C1F80035F4E7D1F80035B7
:1037A00043F00043C1F80035EDE7000000EB4111A4
:1037B000064AC1F81025D1F8003523F0804343F0C4
:1037C0000043C1F800350020704700BF00000880AA
:1037D00070B582B04C78C36B13F4807F07D00B793F
:1037E0002BB912B94B79012B11D0012A13D00B69D7
:1037F000E3B10D892B44013BB3FBF5F39BB2B3F569
:10380000807F14D92D020D614FF480730FE02146A3
:10381000FFF7CCFF75E000EB4413D3F80C5525F00F
:103820006005C3F80C5500234B71E0E70123CD7808
:103830001DB10D8905FB03F50D610D69C5F3120579
:10384000374E06EAC3432B438D7A6D0705F0C0451A
:1038500000EB44142B43C4F8103512B1CB68C4F804
:10386000143500F58066B36813F0010FD4F8003505
:1038700023F00053C4F80035D4F800350CBF4FF0E6
:10388000005500252B43C4F80035D4F80055254BCE
:103890001D601D6825F080451D60CB78C3B1214DAA
:1038A0002B6843F400432B601E4B1D6845F0004518
:1038B0001D601B68C4F800351ABBCB780BBB0B69C5
:1038C000FBB1CA79032A14D8DFE802F0081E081EEB
:1038D000144D2B6823F400432B60E5E70333C26AE1
:1038E00092B2C3F38F039A4203D2836943F0200359
:1038F0008361CC684A780B8A002100912146FFF74A
:1039000043FD002002B070BD0333326992B2C3F3AD
:103910008F039A42EDD2836943F080638361E8E7C5
:103920000000F81FB800002070B505460446FFF7F8
:10393000E6FC10212846FFF701FD2846FFF712FD9F
:1039400000220AE004EB4211D1F8003523F0802375
:1039500043F08043C1F8003501320F2AF2D900202C
:10396000034600E001300F2813D804EB401606F59B
:10397000A061D6F8002522F4004242F04042C6F889
:1039800000250133B3F57A7FECD80A68002AF8DB0A
:10399000E8E74FF0FF33C5F814346B612846FFF7B2
:1039A000A8FC002070BD000008B50349034803F0DF
:1039B0003FFC034B187008BD08480020947F0008A6
:1039C000A46800200020704708B50146034800F0B5
:1039D0004AFB08B9012008BD0020FCE7A8680020C8
:1039E00010B590B0044600930B4601460B4800F01A
:1039F0006FFB10B9002010B010BD03AA2146074884
:103A000000F044FB9DF81930282B05D03A2B03D049
:103A1000042B01D00120EEE70320ECE7A86800208A
:103A200010B58EB01446032924D8DFE801F0020552
:103A30000E1800200EB010BD01AA0146114800F07A
:103A400025FBC8B9029B2360F4E701AA01460D4893
:103A500000F01CFB90B9BDF80C302360EAE701AA26
:103A60000146084800F012FB50B9BDF80C305B0A63
:103A70002360DFE70420DDE70120DBE70120D9E751
:103A80000120D7E7A868002010B590B00446009345
:103A90000B4601460E4800F065FB10B9002010B03F
:103AA00010BD03AA21460A4800F0F0FA9DF819302B
:103AB000272B0AD005D9282B01D03A2B03D103207C
:103AC000EDE7042BFBD00120E9E70220E7E700BF88
:103AD000A86800200020704770B5D0F87C33DC69FE
:103AE000237B23B1012B00F04481012070BD0646E9
:103AF000B4F8F810237899420AD30023A4F8F830D8
:103B000001252573D0F8D433022198472846EDE7E4
:103B1000342303FB0143012283F8912093F8903072
:103B2000082B00F22881DFE813F009002601440089
:103B30009E001500D300260126011F01342303FB3C
:103B40000141042381F89030D0F8C433C4F8FC302C
:103B50000120CBE7342202FB01F2983222440732E3
:103B6000C9B200F04EFD034638B9B4F8F82034214C
:103B700001FB0242022182F89010022B03D0042B99
:103B80000BD00120B2E7B4F8F830342202FB034432
:103B9000052384F890300120A8E7B4F8F8303422E7
:103BA00002FB0344012084F89000022384F8913042
:103BB0009CE7C9B200F0B7FC0246C0B9B4F8F830CF
:103BC000342101FB034191F89210B1B1342101FB82
:103BD0000341012081F8C100342101FB034303218B
:103BE00083F89010002183F8911083F89210022A34
:103BF0000AD0042A2BD0012078E7342101FB0341AD
:103C0000002081F8C100E7E7B4F8F830342202FB65
:103C1000034292F89220022A12D0342202FB03427D
:103C2000012182F8C110342202FB0344052384F8E9
:103C30009030012084F89100022384F8923055E7F7
:103C4000342202FB0342002182F8C110EBE7B4F8F2
:103C5000F830342202FB0344012084F89000022350
:103C600084F8913042E7342202FB01F29032224480
:103C70000432C9B200F07EFC28B1022812D0042818
:103C80001AD0012032E7B4F8F830342202FB0342A4
:103C9000012082F89000002182F891100344A4F8DA
:103CA000F83023E7B4F8F830342202FB034405234C
:103CB00084F89030012019E7B4F8F830342202FB80
:103CC0000344012084F89000022384F891300DE72A
:103CD000342202FB01F2983222440432C9B200F0CD
:103CE000FCFC034698B9B4F8F820342101FB0241EA
:103CF00091F89C10062910D002290ED0342101FB26
:103D00000241012081F890000244A4F8F820022B1F
:103D100014D0042B1CD00120E8E6D6F8C413D4F844
:103D2000FC00091A42F20F708142E7D8342303FBEA
:103D30000242022382F890300120D7E6B4F8F8302E
:103D4000342202FB0344082384F890300120CDE69E
:103D5000B4F8F830342202FB0344012084F89000C8
:103D6000022384F89130C1E60131A4F8F810012053
:103D7000BCE60020BAE60120B8E638B5D0F87C33BE
:103D8000DC69A37B022B04D0032B24D00BB10120D0
:103D900038BD214600F076FA032809D00028F7D173
:103DA0002178022907D80131C9B2217000230FE020
:103DB00000202070F4E70221F7E7342202FB0342DF
:103DC000022582F89250002582F8C1500133DBB2FF
:103DD0008B42F2D3DCE7002101F028FB18B9E37B2A
:103DE000A3730120D4E70120D2E738B50446D0F808
:103DF0007C33DD69697969B92979A1B9D4F87C3353
:103E0000D86928B103F090FCD4F87C330022DA6141
:103E1000002038BD01F09CFB6979204601F0B0FB21
:103E200000236B71E8E7204601F092FB29792046D8
:103E300001F0A6FB00232B71E0E72DE9F04184B0EF
:103E40000446D0F87C1350230622097900F0C6FE00
:103E5000012804D90227384604B0BDE8F08106469F
:103E60000146204600F0B0FE0746002879D1D4F87C
:103E70007C534FF4807003F04FFCE861D4F87C333E
:103E8000DD69002D6FD04FF480720021284603F0C9
:103E900053FC1A2303FB064393F84E3313F0800FB1
:103EA0004FD1AB711A2303FB0643B3F850332B8178
:103EB0001A2303FB064393F8563313F0800F48D1BF
:103EC000AB711A2303FB0646B6F858332B81002644
:103ED0002E736E73AE73A979204601F03EFB6871B4
:103EE000E979204601F039FB2871204600F0D8F925
:103EF00094F81C33AA796979288902904FF0020856
:103F0000CDF8048094F81D030090204601F010FBCA
:103F100094F81C33EA79297968890290CDF80480F5
:103F200094F81D030090204601F002FB32462979E7
:103F3000204603F00DFB32466979204603F008FB6A
:103F400089E7EB711A2303FB0643B3F850336B8107
:103F5000AEE7EB711A2303FB0646B6F858336B81C4
:103F6000B5E7022777E7022775E730B583B00C463F
:103F7000D0F87C33DD69342303FB015393F8903090
:103F8000062B07D0072B29D0052B4BD00123184631
:103F900003B030BD00220092134600F02DFC034612
:103FA00028B102280AD0042810D00123EFE73422D8
:103FB00002FB0454012284F89020E8E7342303FB39
:103FC0000454052384F890300123E0E7342303FBF5
:103FD0000454082384F890300223D8E7002200928A
:103FE000134600F0C4FB034628B102280AD0042877
:103FF00010D00123CBE7342202FB0454012284F8C1
:104000009020C4E7342303FB0454052384F8903044
:104010000123BCE7342303FB0454082384F89030C5
:104020000223B4E7342202FB01F298322A4404321C
:1040300000F053FB0246A0B9342101FB04510123D7
:1040400081F89030022381F89130022A9FD0042A0F
:104050009DD1342303FB0454082384F890300223B9
:1040600095E70123F1E7D0F87C33DA690378DBB216
:104070000B2B01D000207047342303FB012191F862
:1040800091300BB10020704701207047D0F87C338D
:10409000DB690078C0B20B2801D00220704770B4F1
:1040A000342000FB01F19031194401F130030E6816
:1040B0004D688C68C868166055609460D060103197
:1040C00010329942F3D10B681360002070BC704726
:1040D000F0B583B0D0F87C43E76990F82043002C1A
:1040E0003BD00478E4B20B2C39D1342404FB0174A6
:1040F00094F89040012C01D0022031E00E46044695
:1041000006203873342101FB067181F89000A7F86E
:10411000FA60089900913146204600F06DFBD4F812
:10412000C45331462046FFF720FF012811D1D4F8AF
:10413000C423521B42F21073089903FB01F39A4205
:1041400003D894F82033002BEBD101233B730220DA
:1041500006E001233B73002002E0022000E0022081
:1041600003B0F0BDF0B583B0D0F87C43E76990F8B8
:104170002043002C3BD00478E4B20B2C39D13424FA
:1041800004FB017494F89040012C01D0022031E02E
:104190000E46044607203873342101FB067181F86E
:1041A0009000A7F8FA60089900913146204600F087
:1041B000DEFAD4F8C45331462046FFF7D6FE012874
:1041C00011D1D4F8C423521B42F21073089903FB97
:1041D00001F39A4203D894F82033002BEBD101234A
:1041E0003B73022006E001233B73002002E0022023
:1041F00000E0022003B0F0BD10B5D0F87C33DC69DC
:10420000217903F08BF90D2812D1A26F0D4B9A4240
:1042100010D1E26FA36D9A4201D0012009E094F819
:1042200084304BB1012B09D0022B09D0012000E0D2
:10423000022010BD0220FCE70020FAE70120F8E789
:104240000220F6E75553425308B5D0F87C33DB69BA
:104250001AB1012A05D0022002E0D97901F0E6F86E
:1042600008BD997901F0E2F8FAE708B52122027455
:10427000FF224274002141828182C1820A4601F0FC
:1042800018F808BD08B5A1220274FE22427400226B
:10429000428282820122C28201F00BF808BD000036
:1042A000D0F87C33DB69054A5A65054A9A650122D4
:1042B00083F8502083F85220002070475553424322
:1042C0005040302070B582B00546D0F87C33DC69B0
:1042D00094F85030013B0A2B00F22181DFE813F003
:1042E0000B001B00450050007C008800BC00C7008C
:1042F000E100F300150184F86110022384F85030C6
:104300006379012600961F2204F1540101F0D7F8C9
:10431000304602B070BD617903F006F9012805D07E
:10432000022818D005281BD00126F1E7E36D6BB1F8
:1043300094F96030002B04DB052384F8503001260B
:10434000E6E7032384F850300126E1E7072384F8E9
:1043500050300126DCE7012384F850301E46D7E7B1
:104360000A2384F850300126D2E723796289D4F8F1
:104370008C1001F0BAF8042384F850300126C7E706
:10438000217903F0D1F8012803D005281FD0012698
:10439000BEE7E36D628993420DD9D4F88C101144C5
:1043A000C4F88C109B1AE365E36D3BB9072384F8CE
:1043B00050300126ACE70023E365F5E723796289F5
:1043C000D4F88C10284601F090F80126A0E70923C4
:1043D00084F8503001269BE763792289D4F88C1049
:1043E0000126009601F06BF8062384F850308FE721
:1043F000617903F099F8012805D0022822D0052818
:1044000025D0012684E7E36D228993420DD9D4F8A3
:104410008C101144C4F88C109B1AE365E36D3BB912
:10442000072384F85030012672E70023E365F5E79F
:1044300063792289D4F88C1001260096284601F071
:104440003EF865E7052384F85030012660E70A232B
:1044500084F8503001265BE723790D2204F17801BE
:1044600001F043F8082384F85030012650E7217901
:1044700003F05AF8012803D005280DD0012647E79C
:10448000012384F8503084F852302846FFF7B4FEF8
:10449000002846D100263BE7092384F85030012646
:1044A00036E70022FFF7D0FE18B1042806D0012617
:1044B0002EE7072384F85030012629E70B2384F8E0
:1044C0005030012624E70122FFF7BEFE18B1042870
:1044D00016D001261CE76179284603F052F8C0F196
:1044E0000102D2B26179284603F032F80022217924
:1044F000284603F02DF8092384F85030012607E7F9
:104500000B2384F85030012602E7FFF7AEFE064683
:1045100000287FF4FDAE012284F85020F8E6012641
:10452000F6E60226F4E608B5D0F87C33DB6993F8AA
:104530005220012A03D0022A19D0022016E00022BC
:10454000DA6583F860200A2183F86210C3F86320DB
:10455000C3F86720C3F86B20C3F86F2083F863208B
:10456000012083F85000022283F8522008BDFFF793
:10457000A9FEFBE738B5D0F87C33DC6994F85230FB
:10458000012B03D0022B21D001231DE00823E3657A
:10459000802384F860300A2384F862300023C4F852
:1045A0006330C4F86730C4F86B30C4F86F3025232B
:1045B00084F86330012384F85030022284F85220BA
:1045C00004F11002C4F88C20184638BD1546FFF7D8
:1045D00079FE03460028F7D1D4F88C10CA78887881
:1045E00042EA0022487842EA0042097842EA01623F
:1045F0002A60D4F88C10CA79897942EA0122AA800B
:10460000E2E7F8B5D0F87C33DC6994F85230012B3E
:1046100003D0022B26D0022522E02422E26580234B
:1046200084F860300A2384F862300023C4F86930CB
:10463000122084F86300490184F8641084F865301E
:1046400084F8663084F8672084F86830012584F89F
:104650005050022384F8523004F11003C4F88C3017
:104660002846F8BD1646FFF72DFE05460028F7D16F
:1046700022220021304603F05FF8D4F88C301B78FA
:1046800003F01F037370D4F88C301B785B09337010
:10469000D4F88C3093F90130002B1BDB0023B3706E
:1046A000D4F88C3053F8082F5B68C6F80320C6F89E
:1046B0000730D4F88C3053F8107F58689968DB685D
:1046C000F76030617161B361D4F88C301B6AC6F851
:1046D0001D30C5E70123B370E2E738B5D0F87C336D
:1046E000DC6994F85230012B03D0022B2AD002232C
:1046F00026E00E22E265802384F860300A2384F8E5
:1047000062300023C4F86930C4F86D30A4F8713009
:10471000032084F86300490184F8641084F865304C
:1047200084F8663084F8672084F86830012384F8C0
:104730005030022284F8522004F11002C4F88C2078
:10474000184638BD1546FFF7BDFD03460028F7D1D2
:10475000D4F88C20927802F00F022A70D4F88C20C2
:10476000127B6A70D4F88C20527BAA70E8E738B5C7
:10477000D0F87C43E46994F85250012D03D0022D07
:1047800037D0022034E0B4F89810049800FB01F10F
:10479000E165002184F860100A2084F86200C4F802
:1047A0006310C4F86710C4F86B10C4F86F102A21A6
:1047B00084F86310C2F3076184F86510C2F30741FF
:1047C00084F86610C2F3072184F8671084F8682023
:1047D000049AC2F3072284F86A20049A84F86B20B2
:1047E000012084F85000022284F85220C4F88C3052
:1047F00038BDFFF767FDFBE738B5D0F87C43E469C7
:1048000094F85250012D03D0022D38D0022035E00B
:10481000B4F89810049800FB01F1E165802184F858
:1048200060100A2184F862100021C4F86310C4F8F3
:104830006710C4F86B10C4F86F10282184F8631057
:10484000C2F3076184F86510C2F3074184F866106B
:10485000C2F3072184F8671084F86820049AC2F331
:10486000072284F86A20049A84F86B20012084F8D7
:104870005000022284F85220C4F88C3038BDFFF773
:1048800021FDFBE7002306E003F1E00200EB8202DA
:104890000021516001330E2BF6D9002304E0C21829
:1048A000002182F81C110133B3F5007FF7D30023F8
:1048B0000370437001228270C0F8C4330276402135
:1048C0008171437680F81C3380F81D2380F81F33F4
:1048D00080F81E331846704708B50378DBB20B2BFF
:1048E00000D008BDD0F87C33002BFAD09B699847E4
:1048F000F7E770B584B004464378072B00F23081A7
:10490000DFE813F0080048006D009E00C300E900D6
:1049100004011D01082100F00CFD18B1032821D06D
:104920000125DEE094F82D23A2710125657094F82D
:104930001C33217902920026019694F81D230092DF
:104940008022204600F0F4FD94F81C336179A279AE
:104950000292019694F81D2300923246204600F000
:10496000E7FDBEE094F81E330133DBB284F81E335A
:10497000032B03D90D2323700125B2E06179204672
:1049800000F0FEFD2179204600F0FAFD002323709F
:104990000125A6E0122100F0CCFC18B1032805D0B7
:1049A00001259EE00223637001259AE094F81E33EE
:1049B0000133DBB284F81E33032B03D90D2323709C
:1049C00001258EE06179204600F0DAFD217920464C
:1049D00000F0D6FD002363702370012581E00121E2
:1049E00000F0F1FC18B1032824D0012579E0022061
:1049F00002F0DCFD012584F81C5303236370217948
:104A0000A37902930026019694F81D3300932B4658
:104A10008022204600F08CFD94F81C336179A27945
:104A20000292019694F81D2300923246204600F02F
:104A30007FFD56E00D23237000236370012550E0B5
:104A4000092100F08FFC18B1032805D0012548E0AA
:104A500004236370012544E094F81E330133DBB274
:104A600084F81E33032B03D90D232370012538E06E
:104A70006179204600F084FD2179204600F080FD18
:104A800000236370237001252BE0B0F83A1300F087
:104A900069FC18B1032805D0012522E005236370C5
:104AA00001251EE094F81E330133DBB284F81E3377
:104AB000032B03D90D232370012512E061792046D1
:104AC00000F05EFD2179204600F05AFD002363705E
:104AD0002370012505E090F8341329B906234370AB
:104AE0000125284604B070BDFF2300F58E7200F04A
:104AF00052FC18B1032805D00125F2E706236370A4
:104B00000125EEE7062363700125EAE790F83513E7
:104B100019B9072343700125E3E7FF2300F58E72DF
:104B200000F039FC18B1032805D00125D9E7072387
:104B300063700125D5E7072363700125D1E790F85D
:104B4000361309B90025CCE7FF2300F58E7200F07B
:104B500022FC05460028C4D0032803D00125C0E765
:104B60000125BEE70025BCE7D8B170B504460E4666
:104B700080F8CC230025C0F87C53C0F88053FFF7A1
:104B800081FE84F8235384F8205384F8215384F859
:104B900022530EB1C4F8D463204602F087FC0020F3
:104BA00070BD022070470A4651B1D0F880334BB92E
:104BB000591CC0F88013DE3340F8232000207047D2
:104BC000022070470220704790F83C338B4203D993
:104BD00080F82413002070470220704770B4064606
:104BE00000200AE01A2404FB056595F849439C421D
:104BF0001AD0FF2B18D0441CE0B2012813D8054668
:104C00001A2404FB006494F847438C4201D0FF2926
:104C1000F1D11A2404FB056494F848439442E1D08E
:104C2000FF2AE8D1DEE7FF2070BC704710B50446CC
:104C300002F0C9FC0121204602F07CFC002010BDDE
:104C400030B587B0044602238DF8173090F8213331
:104C5000DBB2012B11D02378DBB20B2B7BD8DFE842
:104C600013F00F002100450009017A007D00E700E4
:104C700092009C00A600B700000103230370EAE73E
:104C800094F82033002B66D001232370C82002F053
:104C90008DFC204602F0A7FC002384F81C33C4F8E6
:104CA000C83358E094F82333012B0FD0D4F8C8331D
:104CB000B3F57A7F13D994F81F330133DBB284F84C
:104CC0001F33032B08D90D23237044E0002384F8FD
:104CD0001F33022323703EE0002323703BE00A339E
:104CE000C4F8C8330A2002F061FC34E0D4F8D433AD
:104CF00013B1042120469847642002F057FC204657
:104D000002F0FEFB84F81D030523237000212046DA
:104D100000F023FC60718021204600F01EFC01465B
:104D2000207194F81C33A27902920025019594F821
:104D30001D2300928022204600F0FAFB94F81C33D9
:104D40006179A2790292019594F81D2300922A4676
:104D5000204600F0EDFB002007B030BD2046FFF7F5
:104D6000C8FD8DF817009DF81730002BF3D184F89B
:104D7000243394F83733012B02D007232370EAE75A
:104D800008232370E7E7D4F8D433002BE3D00121C4
:104D90002046984708232370DDE794F83D1320460A
:104DA00000F022FB0028D6D109232370D3E794F822
:104DB0003F3313F0200F02D10A232370CBE70121E8
:104DC000204600F022FB0028C5D10A232370C2E749
:104DD000D4F88033002BBED00023C4F87C3373B1E9
:104DE000D4F87C330BB39B6820469847D0B9062390
:104DF0002370D4F8D433032120469847ABE71846F4
:104E000003F1DE0254F82220117994F847239142ED
:104E100002D00133DBB2E2E7DE3054F82030C4F8D0
:104E20007C33DDE70D23237095E70D23237092E794
:104E3000D4F87C3393B11B69204698478DF817004E
:104E40009DF817303BB19DF81730DBB2022B82D1B1
:104E50000D2323707FE70B2323707CE70D23237042
:104E600079E7D4F87C33002B3FF475AF5B692046BB
:104E7000984770E7002384F821332046FFF702FDAE
:104E8000D4F87C332BB1DB68204698470023C4F864
:104E90007C33D4F8D43313B105212046984794F8D5
:104EA0002233DBB2012B03D0204602F08CFB52E709
:104EB000002384F822332046FFF7B8FE4BE7C0F802
:104EC000C413704708B5D0F8C4330133C0F8C433F5
:104ED000FFF702FD08BD012380F82333704700234C
:104EE00080F823337047012380F82033002380F8B3
:104EF000213380F822331846704738B50446012321
:104F000080F82133002580F8205380F8235302F0E5
:104F100062FB2179204600F033FB6179204600F0E6
:104F20002FFB284638BD10B40B7803704B784370C4
:104F30008B78CC7843EA042343800B7903714B7957
:104F400043718B798371CB79C371082A16D90B7A97
:104F50004A7A43EA022303818B7ACA7A43EA02231C
:104F600043810B7B4A7B43EA022383818B7B8373E0
:104F7000CB7BC3730B7C03744B7C43745DF8044B95
:104F800070470B7803704B7843708B788370CB78C5
:104F9000C3700B7903714B7943718B798371CB7932
:104FA000C3710B7A037270470B7803704B784370B0
:104FB0008B788370CB78C3700B794A7943EA0223EC
:104FC00083808B79837170474378032B00D07047BF
:104FD0000378023B9A4228BF1A4692B200239342BA
:104FE0000DD210B4C418A47801F8014B02339BB25F
:104FF0009342F7D300230B705DF8044B70470023F6
:105000000B70704730B583B00446037E013B0A2B1A
:1050100000F2E180DFE803F0061037435664808C2D
:105020009FADC400427900F1100100F011FA022393
:105030002376012003B030BD417902F075FA0128D2
:1050400005D004281BD0022819D00120F2E7237CC8
:10505000E28A4AB113F0800F03D1052323760120A1
:10506000E8E703232376E5E713F0800F03D1072356
:1050700023760120DEE7092323760120DAE70B23DC
:1050800023760120D6E7D0F8C433C381037982891F
:10509000816800F004FA042323760120CAE701792D
:1050A00002F042FA012806D0052800F09680042874
:1050B00004D00120BEE709232376F5E70B232376EE
:1050C0000120B7E74379828901250095816800F0C6
:1050D000D0F9D4F8C433E381062323762846A9E720
:1050E000417902F021FA012807D0052808D00228CA
:1050F0000AD004280CD001209CE70723237699E7E7
:105100000C232376032095E705232376012091E7DE
:105110000B23237602208DE703790022114600F04D
:10512000BEF9D4F8C433E38108232376012081E754
:10513000017902F0F9F9012805D0042807D00528E3
:105140004DD0012076E70D232376002072E70B2354
:10515000237601206EE74379012500950022114650
:1051600000F087F9D4F8C433E3810A232376284674
:1051700060E7417902F0D8F9012805D0022807D06C
:10518000042809D0012055E70D232376002051E79C
:105190000923237601204DE70B232376012049E7DD
:1051A000437E0133DBB24376022B10D9D0F8D433DF
:1051B00006219847002565766179204600F0E0F9E0
:1051C0002179204600F0DCF92570022032E7012029
:1051D0002076A0702EE701202CE703202AE7032089
:1051E00028E703780A8813440B8003781844704733
:1051F0002DE9F04182B00C460B7803704B78437078
:105200008B78C97843EA012343802379037163795A
:105210004371A3798371E379C371237A0372092AF5
:1052200044D905460923ADF806300026012E3DD8A5
:105230006A88BDF806309A4238D90DF10601204639
:10524000FFF7CFFF04464378042BEFD1B0461A2076
:1052500000FB06F00830284421460230FFF791FE9B
:1052600000271A2303FB08539B7BBB421BD96A8888
:10527000BDF806309A4216D90DF106012046FFF717
:10528000B0FF04464378052BEBD101371A2000FB11
:1052900008F000EBC7000830284421460430FFF72F
:1052A00083FEFFB2DDE70136F6B2BFE702B0BDE82C
:1052B000F0818378012B03D0022B09D0012305E074
:1052C0008160828101230376022282701846704732
:1052D00010B50446FFF796FE034630B1032804D00C
:1052E000022806D10122A27003E00122A27000224E
:1052F0002276184610BD38B5BDF810508478012CC0
:1053000004D02A461946FFF7D4FF38BD61F07F0468
:10531000047406214174428202F47F44B4F5407F54
:1053200003D000228282C582EBE740F209428282EA
:10533000F9E7F0B583B0044600F58E750E4600918E
:105340002B464FF480720021FFF7D5FF074610B1BE
:10535000384603B0F0BD3246294604F22630FFF746
:10536000E2FDF5E7F0B583B004460E4600F11C05FA
:1053700000912B464FF400720021FFF7BCFF074657
:1053800010B1384603B0F0BD3246294604F54E70E0
:10539000FFF72EFFF5E7F0B583B017461D4600F581
:1053A0008E740093234641F440720021FFF7A3FF5F
:1053B000064610B1304603B0F0BD2A4639462046B5
:1053C000FFF702FEF6E708B58378012B04D0002230
:1053D0001146FFF76EFF08BD0023037405224274D7
:1053E00041828382C382F2E708B58378012B04D01F
:1053F00000221146FFF75DFF08BD00230374092258
:10540000427441828382C382F2E708B58378012B1C
:1054100004D000221146FFF74CFF08BD002303749F
:105420000322427441828382C382F2E708B5837803
:10543000012B04D000221146FFF73BFF08BD0223D9
:10544000037401234374002343828182C382F1E702
:1054500030B585B0154600240394082302930191CA
:10546000009423462246294602F0E0F8204605B083
:1054700030BD30B585B00C4619469DF8203090F807
:105480001D5305B10023039302920194012300935D
:1054900000231A4602F0CAF8002005B030BD30B52E
:1054A00085B01D46002403940292019101220092CE
:1054B0002346294602F0BAF8204605B030BD30B583
:1054C00085B00C4619469DF8203090F81D5305B163
:1054D00000230393029201940123009302230022EC
:1054E00002F0A4F8002005B030BD30B585B01D46EF
:1054F0000024039402920191012200920223294682
:1055000002F094F8204605B030BD00230A2B0CD8D9
:1055100003F1E00200EB8202526812F4004F02D065
:105520000133DBB2F2E798B270474FF6FF70704775
:1055300010B584B0BDF8204002949DF81C40019441
:105540009DF81840009402F056F8002004B010BDF9
:1055500008B502F063F8002008BD38B504460D46D2
:10556000FFF7D3FF4FF6FF73984207D000F00F0309
:1055700045F40045E03304EB83035D60C0B238BD01
:105580000A2906D8E03100EB81014B68C3F30E0312
:105590004B6000207047000008B5044B03EB80020D
:1055A000526852680344187A904708BD44050020A9
:1055B00008B5084B1B5C53B9064B01221A5403EB88
:1055C0008002526812681844007A904708BD002093
:1055D000FCE700BF4405002038B5044C04EB80050F
:1055E0006D68AD680444207AA84738BD44050020A2
:1055F00038B5044C04EB80056D68ED680444207AEE
:10560000A84738BD4405002010B5044B03EB8004C7
:10561000646824690344187AA04710BD440500203B
:105620004278007840EA02207047C278837843EAE3
:105630000222437843EA0223007840EA03207047BD
:105640002DE9F008C279002514028279002344EA8A
:10565000020B45EA030C4FEA0C2343EA1B634FEAB3
:105660000B224479002544EA020B45EA030C4FEA79
:105670000C2343EA1B634FEA0B220479002544EA1A
:10568000020B45EA030C4FEA0C2343EA1B634FEA83
:105690000B22C478002544EA020B45EA030C4FEACA
:1056A0000C2343EA1B634FEA0B228478002544EA6B
:1056B000020645EA03074FEA072C4CEA166C4FEA4C
:1056C000062B447800254BEA04024CEA05031D0230
:1056D00045EA126514020278002342EA040043EA14
:1056E0000501BDE8F00870470170090A4170704774
:1056F0000170C1F307234370C1F307438370090EA0
:10570000C170704713462AB10A7802700130013126
:10571000013BF9D1704701700130013AFBD170476C
:1057200030B4451C037808781B1A013A04D04C1C8D
:1057300028462146002BF4D0184630BC704700E0C4
:10574000013003780BB18B42FAD118467047000044
:1057500070B4002300E00133012B13D81A01244C4C
:10576000A45802689442F6D1214A02EB031254680D
:1057700082689442EFD11E4A02EB03129468026BD6
:105780009442E8D1022B29D021B1194A02EB03122D
:10579000928952BB21BB164A02EB03129189013157
:1057A00089B2134A02EB03129181581C70BC7047F6
:1057B0000133012B04D81A010D4CA258002AF7D14D
:1057C000022B10D006680A4D1C012A192E5184683C
:1057D0005460006B906000209081D5E70023E8E7DB
:1057E0004FF48071DDE70020E0E70020DEE700BF36
:1057F000BC0000200138012815D80D4B03EB001325
:105800009B89B3F5807F03D01BB1013B9BB200E0C5
:105810000023074A02EB0012938133B903010020F1
:10582000034AD0507047022070470020704700BFE5
:10583000BC000020002303E05DF8044B70470133F7
:10584000012B11D81A0109498A588242F7D110B4A4
:105850001A0100248C500133012BEDD81A010349A1
:105860008A588242F7D1F3E7704700BFBC0000209E
:105870000239036A023B8B4204D94389406B01FB26
:10588000030070470020704770B506460D4601F1D1
:105890001A00FFF7C5FE3378032B00D070BD044615
:1058A00005F11400FFF7BCFE44EA0040F6E70000F3
:1058B0002DE9F04107460E4601F11A00FFF7B0FE50
:1058C00060BB357825F04005013D05EB450305EB50
:1058D00083054FF00108002404E04FF6FF7398425F
:1058E00021D101340C2C0ED8124B185D3044FFF737
:1058F00097FEB8F1000FF0D0FE2D12D827F8150052
:1059000080460135EDE7337813F0400F0DD0FE2DC2
:105910000DD8002327F81530012000E00020BDE855
:10592000F0810020FBE70020F9E70120F7E70020E5
:10593000F5E700BFA87F000801460B220020C30145
:1059400043EA5003087850FA83F3D8B20131013AA0
:10595000F5D1704730B40546417801314901002046
:10596000034601E0013301338B4209D2022BF9D007
:10597000420802EBC032EC5C14FA82F290B2F2E719
:1059800030BC7047016809B10A4603E04FF0FF33AD
:1059900008E0013213781F2B01D93A2BF9D13A2BA9
:1059A00002D000231846704710B44C1C0B78303BD3
:1059B000092B08D8A24209D15BB90132026018460E
:1059C0005DF8044B70474FF0FF33F8E74FF0FF33BB
:1059D000F5E74FF0FF33F2E738B50D46A8B10446BE
:1059E0000368ABB11A78AAB18188DA88914203D0F2
:1059F000092000232B6038BD5878FFF7CDFD10F04B
:105A0000010F0AD123680020F4E709200023F1E701
:105A10000920EFE709200023ECE709200023E9E74C
:105A2000F8B5C3780BB90020F8BD0446856B00F1CA
:105A30003C0701232A4639464078FFF7D9FDA8B92B
:105A40000023E370E36AEB1A626A934210D2A678ED
:105A5000012E09D9636A1D4401232A46394660781C
:105A6000FFF7C6FD013EF3E70020DDE70120DBE79D
:105A70000020D9E770B5836B8B4212D004460D46E7
:105A8000FFF7CEFF064668B901232A4604F13C0120
:105A90006078FFF7A1FD10B101264FF0FF35A56337
:105AA00000E00026304670BD10B504460023C370E8
:105AB0004FF0FF338363FFF7DDFF60BB04F23A2052
:105AC000FFF7AEFD4AF65523984226D194F83C30B4
:105AD000E92B0ED0E36B03F0FF13134A934208D077
